{
  "_format": "hh-sol-artifact-1",
  "contractName": "RockPaperScissors",
  "sourceName": "contracts/FHECounter.sol",
  "abi": [
    {
      "inputs": [],
      "name": "HandlesAlreadySavedForRequestID",
      "type": "error"
    },
    {
      "inputs": [],
      "name": "InvalidKMSSignatures",
      "type": "error"
    },
    {
      "inputs": [],
      "name": "NoHandleFoundForRequestID",
      "type": "error"
    },
    {
      "inputs": [],
      "name": "UnsupportedHandleType",
      "type": "error"
    },
    {
      "anonymous": false,
      "inputs": [
        {
          "indexed": true,
          "internalType": "uint256",
          "name": "requestID",
          "type": "uint256"
        }
      ],
      "name": "DecryptionFulfilled",
      "type": "event"
    },
    {
      "anonymous": false,
      "inputs": [
        {
          "indexed": true,
          "internalType": "uint256",
          "name": "gameId",
          "type": "uint256"
        },
        {
          "indexed": false,
          "internalType": "enum RockPaperScissors.Result",
          "name": "result",
          "type": "uint8"
        }
      ],
      "name": "GameCompleted",
      "type": "event"
    },
    {
      "anonymous": false,
      "inputs": [
        {
          "indexed": true,
          "internalType": "uint256",
          "name": "gameId",
          "type": "uint256"
        },
        {
          "indexed": true,
          "internalType": "address",
          "name": "player1",
          "type": "address"
        }
      ],
      "name": "GameCreated",
      "type": "event"
    },
    {
      "anonymous": false,
      "inputs": [
        {
          "indexed": true,
          "internalType": "uint256",
          "name": "gameId",
          "type": "uint256"
        },
        {
          "indexed": true,
          "internalType": "address",
          "name": "player2",
          "type": "address"
        }
      ],
      "name": "GameJoined",
      "type": "event"
    },
    {
      "inputs": [
        {
          "internalType": "externalEuint8",
          "name": "choice",
          "type": "bytes32"
        },
        {
          "internalType": "bytes",
          "name": "choiceProof",
          "type": "bytes"
        }
      ],
      "name": "createGame",
      "outputs": [],
      "stateMutability": "nonpayable",
      "type": "function"
    },
    {
      "inputs": [],
      "name": "gameCounter",
      "outputs": [
        {
          "internalType": "uint256",
          "name": "",
          "type": "uint256"
        }
      ],
      "stateMutability": "view",
      "type": "function"
    },
    {
      "inputs": [
        {
          "internalType": "uint256",
          "name": "requestId",
          "type": "uint256"
        },
        {
          "internalType": "uint8",
          "name": "choice1",
          "type": "uint8"
        },
        {
          "internalType": "uint8",
          "name": "choice2",
          "type": "uint8"
        },
        {
          "internalType": "bytes[]",
          "name": "signatures",
          "type": "bytes[]"
        }
      ],
      "name": "gameResultCallback",
      "outputs": [
        {
          "internalType": "bool",
          "name": "",
          "type": "bool"
        }
      ],
      "stateMutability": "nonpayable",
      "type": "function"
    },
    {
      "inputs": [
        {
          "internalType": "uint256",
          "name": "",
          "type": "uint256"
        }
      ],
      "name": "games",
      "outputs": [
        {
          "internalType": "address",
          "name": "player1",
          "type": "address"
        },
        {
          "internalType": "address",
          "name": "player2",
          "type": "address"
        },
        {
          "internalType": "euint8",
          "name": "player1Choice",
          "type": "bytes32"
        },
        {
          "internalType": "euint8",
          "name": "player2Choice",
          "type": "bytes32"
        },
        {
          "internalType": "enum RockPaperScissors.GameStatus",
          "name": "status",
          "type": "uint8"
        },
        {
          "internalType": "uint256",
          "name": "createdAt",
          "type": "uint256"
        }
      ],
      "stateMutability": "view",
      "type": "function"
    },
    {
      "inputs": [
        {
          "internalType": "uint256",
          "name": "gameId",
          "type": "uint256"
        }
      ],
      "name": "getGameDetails",
      "outputs": [
        {
          "internalType": "address",
          "name": "player1",
          "type": "address"
        },
        {
          "internalType": "address",
          "name": "player2",
          "type": "address"
        },
        {
          "internalType": "enum RockPaperScissors.GameStatus",
          "name": "status",
          "type": "uint8"
        },
        {
          "internalType": "uint256",
          "name": "createdAt",
          "type": "uint256"
        }
      ],
      "stateMutability": "view",
      "type": "function"
    },
    {
      "inputs": [],
      "name": "getOpenGames",
      "outputs": [
        {
          "internalType": "uint256[]",
          "name": "",
          "type": "uint256[]"
        }
      ],
      "stateMutability": "view",
      "type": "function"
    },
    {
      "inputs": [
        {
          "internalType": "address",
          "name": "player",
          "type": "address"
        }
      ],
      "name": "getPlayerGames",
      "outputs": [
        {
          "internalType": "uint256[]",
          "name": "",
          "type": "uint256[]"
        }
      ],
      "stateMutability": "view",
      "type": "function"
    },
    {
      "inputs": [
        {
          "internalType": "address",
          "name": "player",
          "type": "address"
        }
      ],
      "name": "getPlayerStats",
      "outputs": [
        {
          "internalType": "uint256",
          "name": "wins",
          "type": "uint256"
        },
        {
          "internalType": "uint256",
          "name": "losses",
          "type": "uint256"
        },
        {
          "internalType": "uint256",
          "name": "draws",
          "type": "uint256"
        }
      ],
      "stateMutability": "view",
      "type": "function"
    },
    {
      "inputs": [
        {
          "internalType": "uint256",
          "name": "gameId",
          "type": "uint256"
        },
        {
          "internalType": "externalEuint8",
          "name": "choice",
          "type": "bytes32"
        },
        {
          "internalType": "bytes",
          "name": "choiceProof",
          "type": "bytes"
        }
      ],
      "name": "joinGame",
      "outputs": [],
      "stateMutability": "nonpayable",
      "type": "function"
    },
    {
      "inputs": [
        {
          "internalType": "uint256",
          "name": "",
          "type": "uint256"
        }
      ],
      "name": "openGames",
      "outputs": [
        {
          "internalType": "uint256",
          "name": "",
          "type": "uint256"
        }
      ],
      "stateMutability": "view",
      "type": "function"
    },
    {
      "inputs": [
        {
          "internalType": "uint256",
          "name": "",
          "type": "uint256"
        }
      ],
      "name": "pendingGames",
      "outputs": [
        {
          "internalType": "uint256",
          "name": "",
          "type": "uint256"
        }
      ],
      "stateMutability": "view",
      "type": "function"
    },
    {
      "inputs": [
        {
          "internalType": "address",
          "name": "",
          "type": "address"
        },
        {
          "internalType": "uint256",
          "name": "",
          "type": "uint256"
        }
      ],
      "name": "playerGames",
      "outputs": [
        {
          "internalType": "uint256",
          "name": "",
          "type": "uint256"
        }
      ],
      "stateMutability": "view",
      "type": "function"
    },
    {
      "inputs": [
        {
          "internalType": "address",
          "name": "",
          "type": "address"
        }
      ],
      "name": "playerStats",
      "outputs": [
        {
          "internalType": "uint256",
          "name": "wins",
          "type": "uint256"
        },
        {
          "internalType": "uint256",
          "name": "losses",
          "type": "uint256"
        },
        {
          "internalType": "uint256",
          "name": "draws",
          "type": "uint256"
        }
      ],
      "stateMutability": "view",
      "type": "function"
    }
  ],
  "bytecode": "0x608060405234801561000f575f80fd5b5061018a6100ae604080516080810182525f80825260208201819052918101829052606081019190915250604080516080810182527350157cffd6bbfa2dece204a89ec419c23ef5755d815273cd3ab3bd6bcc0c0bf3e27912a92043e817b1cf696020820152731364cbbf2cdf5032c47d8226a6f6fbd2afcdacac9181019190915273901f8942346f7ab3a01f6d7613119bca447bb030606082015290565b80517fed8d60e34876f751cc8b014c560745351147d9de11b9347c854e881b128ea60080546001600160a01b03199081166001600160a01b039384161790915560208301517fed8d60e34876f751cc8b014c560745351147d9de11b9347c854e881b128ea6018054831691841691909117905560408301517fed8d60e34876f751cc8b014c560745351147d9de11b9347c854e881b128ea6028054831691841691909117905560608301517fed8d60e34876f751cc8b014c560745351147d9de11b9347c854e881b128ea6038054909216921691909117905550565b7f5ea69329017273582817d320489fbd94f775580e90c092699ca6f3d12fdf7d0080546001600160a01b03191673a02cda4ca3a71d7c46997716f4283aa851c28812179055611ac5806101dc5f395ff3fe608060405234801561000f575f80fd5b50600436106100da575f3560e01c806331e5452a11610088578063579e94ee11610063578063579e94ee1461026c578063cdafbbb61461028b578063e75d7e3e146102b8578063fd22a6cf146102c0575f80fd5b806331e5452a146101ca57806349fa0e9a146101ed5780634fd66eae14610200575f80fd5b80631b31abda116100b85780631b31abda146101895780631d7a0964146101ac5780632e0be39a146101c1575f80fd5b80630a5694c2146100de578063117a5b9014610104578063129daf8414610169575b5f80fd5b6100f16100ec36600461149e565b6102d3565b6040519081526020015b60405180910390f35b6101576101123660046114c6565b5f602081905290815260409020805460018201546002830154600384015460048501546005909501546001600160a01b039485169594909316939192909160ff169086565b6040516100fb96959493929190611505565b61017c610177366004611549565b6102fe565b6040516100fb9190611562565b61019c6101973660046114c6565b610367565b6040516100fb94939291906115a5565b6101bf6101ba36600461161e565b61041e565b005b6100f160045481565b6101dd6101d83660046116bb565b6105f0565b60405190151581526020016100fb565b6101bf6101fb3660046117f0565b6106ef565b61025161020e366004611549565b6001600160a01b03165f90815260016020818152604092839020835160608101855281548082529382015492810183905260029091015493018390529092909190565b604080519384526020840192909252908201526060016100fb565b6100f161027a3660046114c6565b60036020525f908152604090205481565b610251610299366004611549565b600160208190525f918252604090912080549181015460029091015483565b61017c6109e1565b6100f16102ce3660046114c6565b610a37565b6002602052815f5260405f2081815481106102ec575f80fd5b905f5260205f20015f91509150505481565b6001600160a01b0381165f9081526002602090815260409182902080548351818402810184019094528084526060939283018282801561035b57602002820191905f5260205f20905b815481526020019060010190808311610347575b50505050509050919050565b5f81815260208181526040808320815160c08101835281546001600160a01b03908116825260018084015490911694820194909452600282015492810192909252600381015460608301526004810154849384938493849391929091608084019160ff909116908111156103dd576103dd6114dd565b60018111156103ee576103ee6114dd565b815260059190910154602091820152815190820151608083015160a0909301519199909850919650945092505050565b60048054905f61042d83611853565b91905055505f6104728484848080601f0160208091040260200160405190810160405280939291908181526020018383808284375f92019190915250610a5692505050565b90506040518060c00160405280336001600160a01b031681526020015f6001600160a01b031681526020018281526020016104ac5f610a6c565b81526020015f815242602091820152600480545f908152808352604090819020845181546001600160a01b0391821673ffffffffffffffffffffffffffffffffffffffff199182161783559486015160018084018054929093169190961617905590840151600282015560608401516003820155608084015191810180549193909160ff1916908381811115610544576105446114dd565b021790555060a09190910151600591820155600454815460018181019093557f036b6384b5eca791c62761152d0c79bb0604c104a5fb6f4eb0703f3154bb3db001819055335f90815260026020908152604082208054948501815582529020909101556105b081610a7b565b506105bb8133610a8a565b506004546040513391907fc3e0f84839dc888c892a013d10c8f9d6dc05a21a879d0ce468ca558013e9121c905f90a350505050565b5f6105fb8583610a9c565b5f858152600360205260408120549081900361065e5760405162461bcd60e51b815260206004820152601260248201527f496e76616c69642072657175657374204944000000000000000000000000000060448201526064015b60405180910390fd5b5f818152602081905260408120906106768787610b03565b82546001840154919250610697916001600160a01b03918216911683610b7c565b5f88815260036020526040808220919091555183907f260525a806e0714f16de6fea0094e17a171fae8df7fbf6b271e695a7c709fd62906106d990849061186b565b60405180910390a2506001979650505050505050565b5f84815260208190526040902080546001600160a01b03166107535760405162461bcd60e51b815260206004820152601360248201527f47616d6520646f6573206e6f74206578697374000000000000000000000000006044820152606401610655565b60018101546001600160a01b0316156107ae5760405162461bcd60e51b815260206004820152601360248201527f47616d6520616c7265616479206a6f696e6564000000000000000000000000006044820152606401610655565b8054336001600160a01b03909116036108095760405162461bcd60e51b815260206004820152601460248201527f43616e6e6f74206a6f696e206f776e2067616d650000000000000000000000006044820152606401610655565b5f600482015460ff166001811115610823576108236114dd565b146108705760405162461bcd60e51b815260206004820152601260248201527f47616d65206e6f7420617661696c61626c6500000000000000000000000000006044820152606401610655565b5f6108b08585858080601f0160208091040260200160405190810160405280939291908181526020018383808284375f92019190915250610a5692505050565b6001838101805473ffffffffffffffffffffffffffffffffffffffff1916339081179091556003850183905560048501805460ff1916831790555f9081526002602090815260408220805493840181558252902001879055905061091386610ca4565b61091c81610a7b565b506109278133610a8a565b506040805160028082526060820183525f926020830190803683375050506002840154909150815f8151811061095f5761095f611885565b6020908102919091010152818160018151811061097e5761097e611885565b60209081029190910101525f61099b826318f2a29560e11b610d4d565b5f818152600360205260408082208b90555191925033918a917f45c4f9cbafe186141862608c493f28b823fde4c2142bedc3f5169961a73fdd2291a35050505050505050565b60606005805480602002602001604051908101604052809291908181526020018280548015610a2d57602002820191905f5260205f20905b815481526020019060010190808311610a19575b5050505050905090565b60058181548110610a46575f80fd5b5f91825260209091200154905081565b5f610a6383836002610d59565b90505b92915050565b5f610a668260ff166002610e79565b5f610a868230610f2e565b5090565b5f610a958383610f2e565b5090919050565b5f610aa683610fb7565b90505f610ab38284611088565b905080610ad35760405163cf6c44e960e01b815260040160405180910390fd5b60405184907f1af0453083661051f6e56e5c070792320652e612154bf9af8637bb1e7655b99d905f90a250505050565b5f8160ff168360ff1603610b1857505f610a66565b5f60ff8416158015610b2d57508260ff166002145b80610b4757508360ff166001148015610b47575060ff8316155b80610b6357508360ff166002148015610b6357508260ff166001145b905080610b71576002610b74565b60015b949350505050565b5f816002811115610b8f57610b8f6114dd565b03610bef576001600160a01b0383165f908152600160205260408120600201805491610bba83611853565b90915550506001600160a01b0382165f908152600160205260408120600201805491610be583611853565b9190505550505050565b6001816002811115610c0357610c036114dd565b03610c56576001600160a01b0383165f908152600160205260408120805491610c2b83611853565b90915550506001600160a01b0382165f908152600160208190526040822001805491610be583611853565b6001600160a01b0383165f908152600160208190526040822001805491610c7c83611853565b90915550506001600160a01b0382165f908152600160205260408120805491610be583611853565b5f5b600554811015610d49578160058281548110610cc457610cc4611885565b905f5260205f20015403610d415760058054610ce290600190611899565b81548110610cf257610cf2611885565b905f5260205f20015460058281548110610d0e57610d0e611885565b5f918252602090912001556005805480610d2a57610d2a6118ac565b600190038181905f5260205f20015f905590555050565b600101610ca6565b5050565b5f610a6383835f6111a3565b7fed8d60e34876f751cc8b014c560745351147d9de11b9347c854e881b128ea6015460405163196d0b9b60e01b81525f917fed8d60e34876f751cc8b014c560745351147d9de11b9347c854e881b128ea600916001600160a01b039091169063196d0b9b90610dd2908890339089908990600401611913565b6020604051808303815f875af1158015610dee573d5f803e3d5ffd5b505050506040513d601f19601f82011682018060405250810190610e129190611952565b8154604051630f8e573b60e21b8152600481018390523360248201529193506001600160a01b031690633e395cec906044015f604051808303815f87803b158015610e5b575f80fd5b505af1158015610e6d573d5f803e3d5ffd5b50505050509392505050565b7fed8d60e34876f751cc8b014c560745351147d9de11b9347c854e881b128ea60154604051639cd07acb60e01b81525f917fed8d60e34876f751cc8b014c560745351147d9de11b9347c854e881b128ea600916001600160a01b0390911690639cd07acb90610eee9087908790600401611969565b6020604051808303815f875af1158015610f0a573d5f803e3d5ffd5b505050506040513d601f19601f82011682018060405250810190610b749190611952565b5f7fed8d60e34876f751cc8b014c560745351147d9de11b9347c854e881b128ea6008054604051635ca4b5b160e11b8152600481018690526001600160a01b03858116602483015292935091169063b9496b62906044015f604051808303815f87803b158015610f9c575f80fd5b505af1158015610fae573d5f803e3d5ffd5b50505050505050565b5f8181527f5ea69329017273582817d320489fbd94f775580e90c092699ca6f3d12fdf7d0260205260408120546060917f5ea69329017273582817d320489fbd94f775580e90c092699ca6f3d12fdf7d009190036110285760405163d66ca67560e01b815260040160405180910390fd5b5f8381526002820160209081526040918290208054835181840281018401909452808452909183018282801561107b57602002820191905f5260205f20905b815481526020019060010190808311611067575b5050505050915050919050565b5f602481611095856112ef565b90505f8167ffffffffffffffff8111156110b1576110b1611676565b6040519080825280601f01601f1916602001820160405280156110db576020820181803683370190505b509050818360208301377fed8d60e34876f751cc8b014c560745351147d9de11b9347c854e881b128ea60254604051632c027b1360e21b81527fed8d60e34876f751cc8b014c560745351147d9de11b9347c854e881b128ea600916001600160a01b03169063b009ec4c90611158908a9086908b906004016119be565b6020604051808303815f875af1158015611174573d5f803e3d5ffd5b505050506040513d601f19601f820116820180604052508101906111989190611a43565b979650505050505050565b7f5ea69329017273582817d320489fbd94f775580e90c092699ca6f3d12fdf7d01547fed8d60e34876f751cc8b014c560745351147d9de11b9347c854e881b128ea6008054604051637d6e912360e11b81527f5ea69329017273582817d320489fbd94f775580e90c092699ca6f3d12fdf7d0092916001600160a01b03169063fadd224690611236908990600401611a62565b5f604051808303815f87803b15801561124d575f80fd5b505af115801561125f573d5f803e3d5ffd5b50508354604051633263b83b60e01b81526001600160a01b039091169250633263b83b915086906112989087908b908b90600401611a74565b5f604051808303818588803b1580156112af575f80fd5b505af11580156112c1573d5f803e3d5ffd5b50505050506112d0838761139c565b600182018054905f6112e183611853565b919050555050509392505050565b80515f9081805b82811015611390575f85828151811061131157611311611885565b6020026020010151601e6020811061132b5761132b611885565b1a605381111561133d5761133d6114dd565b90506009816053811115611353576113536114dd565b60ff16101561136e57611367602084611aa5565b9250611387565b60405163ce54a8d160e01b815260040160405180910390fd5b506001016112f6565b50610b74602082611aa5565b5f8281527f5ea69329017273582817d320489fbd94f775580e90c092699ca6f3d12fdf7d0260205260409020547f5ea69329017273582817d320489fbd94f775580e90c092699ca6f3d12fdf7d00901561140957604051633f06d22b60e01b815260040160405180910390fd5b5f838152600282016020908152604090912083516114299285019061142f565b50505050565b828054828255905f5260205f20908101928215611468579160200282015b8281111561146857825182559160200191906001019061144d565b50610a869291505b80821115610a86575f8155600101611470565b80356001600160a01b0381168114611499575f80fd5b919050565b5f80604083850312156114af575f80fd5b6114b883611483565b946020939093013593505050565b5f602082840312156114d6575f80fd5b5035919050565b634e487b7160e01b5f52602160045260245ffd5b60028110611501576115016114dd565b9052565b6001600160a01b03878116825286166020820152604081018590526060810184905260c0810161153860808301856114f1565b8260a0830152979650505050505050565b5f60208284031215611559575f80fd5b610a6382611483565b602080825282518282018190525f9190848201906040850190845b818110156115995783518352928401929184019160010161157d565b50909695505050505050565b6001600160a01b03858116825284166020820152608081016115ca60408301856114f1565b82606083015295945050505050565b5f8083601f8401126115e9575f80fd5b50813567ffffffffffffffff811115611600575f80fd5b602083019150836020828501011115611617575f80fd5b9250929050565b5f805f60408486031215611630575f80fd5b83359250602084013567ffffffffffffffff81111561164d575f80fd5b611659868287016115d9565b9497909650939450505050565b803560ff81168114611499575f80fd5b634e487b7160e01b5f52604160045260245ffd5b604051601f8201601f1916810167ffffffffffffffff811182821017156116b3576116b3611676565b604052919050565b5f805f80608085870312156116ce575f80fd5b8435935060206116df818701611666565b93506116ed60408701611666565b9250606086013567ffffffffffffffff80821115611709575f80fd5b818801915088601f83011261171c575f80fd5b81358181111561172e5761172e611676565b8060051b61173d85820161168a565b918252838101850191858101908c841115611756575f80fd5b86860192505b838310156117df57823585811115611772575f80fd5b8601603f81018e13611782575f80fd5b878101358681111561179657611796611676565b6117a8601f8201601f19168a0161168a565b8181528f60408385010111156117bc575f80fd5b81604084018b8301375f9181018a0191909152835250918601919086019061175c565b999c989b5096995050505050505050565b5f805f8060608587031215611803575f80fd5b8435935060208501359250604085013567ffffffffffffffff811115611827575f80fd5b611833878288016115d9565b95989497509550505050565b634e487b7160e01b5f52601160045260245ffd5b5f600182016118645761186461183f565b5060010190565b602081016003831061187f5761187f6114dd565b91905290565b634e487b7160e01b5f52603260045260245ffd5b81810381811115610a6657610a6661183f565b634e487b7160e01b5f52603160045260245ffd5b5f81518084525f5b818110156118e4576020818501810151868301820152016118c8565b505f602082860101526020601f19601f83011685010191505092915050565b60548110611501576115016114dd565b8481526001600160a01b0384166020820152608060408201525f61193a60808301856118c0565b90506119496060830184611903565b95945050505050565b5f60208284031215611962575f80fd5b5051919050565b8281526040810161197d6020830184611903565b9392505050565b5f815180845260208085019450602084015f5b838110156119b357815187529582019590820190600101611997565b509495945050505050565b606081525f6119d06060830186611984565b6020838203818501526119e382876118c0565b915083820360408501528185518084528284019150828160051b8501018388015f5b83811015611a3357601f19878403018552611a218383516118c0565b94860194925090850190600101611a05565b50909a9950505050505050505050565b5f60208284031215611a53575f80fd5b8151801515811461197d575f80fd5b602081525f610a636020830184611984565b838152606060208201525f611a8c6060830185611984565b905063ffffffff60e01b83166040830152949350505050565b80820180821115610a6657610a6661183f56fea164736f6c6343000818000a",
  "linkReferences": {},
  "deployedLinkReferences": {}
}